{
  "contractName": "Oracle",
  "abi": [
    {
      "inputs": [],
      "stateMutability": "nonpayable",
      "type": "constructor"
    },
    {
      "anonymous": false,
      "inputs": [],
      "name": "__callBackNewData",
      "type": "event"
    },
    {
      "inputs": [],
      "name": "numberAsteroids",
      "outputs": [
        {
          "internalType": "uint256",
          "name": "",
          "type": "uint256"
        }
      ],
      "stateMutability": "view",
      "type": "function",
      "constant": true
    },
    {
      "inputs": [],
      "name": "update",
      "outputs": [],
      "stateMutability": "nonpayable",
      "type": "function"
    },
    {
      "inputs": [
        {
          "internalType": "uint256",
          "name": "_num",
          "type": "uint256"
        }
      ],
      "name": "setNumberAsteroids",
      "outputs": [],
      "stateMutability": "nonpayable",
      "type": "function"
    }
  ],
  "bytecode": "0x608060405234801561001057600080fd5b50336000806101000a81548173ffffffffffffffffffffffffffffffffffffffff021916908373ffffffffffffffffffffffffffffffffffffffff160217905550610314806100606000396000f3fe608060405234801561001057600080fd5b50600436106100415760003560e01c8063402bc6bb14610046578063829400cb14610062578063a2e6204514610080575b600080fd5b610060600480360381019061005b91906101f9565b61008a565b005b61006a610122565b6040516100779190610291565b60405180910390f35b610088610128565b005b60008054906101000a900473ffffffffffffffffffffffffffffffffffffffff1673ffffffffffffffffffffffffffffffffffffffff163373ffffffffffffffffffffffffffffffffffffffff1614610118576040517f08c379a000000000000000000000000000000000000000000000000000000000815260040161010f90610271565b60405180910390fd5b8060018190555050565b60015481565b60008054906101000a900473ffffffffffffffffffffffffffffffffffffffff1673ffffffffffffffffffffffffffffffffffffffff163373ffffffffffffffffffffffffffffffffffffffff16146101b6576040517f08c379a00000000000000000000000000000000000000000000000000000000081526004016101ad90610271565b60405180910390fd5b7fa0ab7a6cf50bb5ce6f63b52992f002a8b69532bdb969f31199269f20cdd6307c60405160405180910390a1565b6000813590506101f3816102c7565b92915050565b60006020828403121561020b57600080fd5b6000610219848285016101e4565b91505092915050565b600061022f600a836102ac565b91507f4f6e6c79204f776e6572000000000000000000000000000000000000000000006000830152602082019050919050565b61026b816102bd565b82525050565b6000602082019050818103600083015261028a81610222565b9050919050565b60006020820190506102a66000830184610262565b92915050565b600082825260208201905092915050565b6000819050919050565b6102d0816102bd565b81146102db57600080fd5b5056fea26469706673582212207f8df607ad74457a65adf6c88082ad6a1b464b2e857879a3fd0d59e8fc16762e64736f6c63430008000033",
  "immutableReferences": {},
  "source": "// SPDX-License-Identifier: MIT\r\npragma solidity ^0.8.0;\r\n\r\ncontract Oracle {\r\n\r\n    // https://api.nasa.gov/neo/rest/v1/feed?start_date=START_DATE&end_date=END_DATE&api_key=API_KEY\r\n\r\n    // Dirección del Owner\r\n    address owner;\r\n\r\n    // Número asteroids\r\n    uint public numberAsteroids;\r\n\r\n    // Evento que reciba datos del oraculo\r\n    event __callBackNewData();\r\n\r\n    // Constructor\r\n    constructor () {\r\n        owner = msg.sender;\r\n    }\r\n    // Restricción de la ejecución de las funciones\r\n    modifier onlyOwner() {\r\n        require(msg.sender == owner, 'Only Owner');\r\n        _;\r\n    }\r\n\r\n    function update() public onlyOwner {\r\n        emit __callBackNewData();\r\n    }\r\n\r\n    // Función para configuración manual del numero de asteroids   \r\n    function setNumberAsteroids(uint _num) public onlyOwner {\r\n        numberAsteroids = _num;\r\n    }\r\n\r\n\r\n}\r\n\r\n",
  "sourcePath": "C:\\Users\\PELE DEBUTOCONUNPIBE\\Desktop\\ORACLE\\contracts\\Oracle.sol",
  "compiler": {
    "name": "solc",
    "version": "0.8.0+commit.c7dfd78e.Emscripten.clang"
  },
  "schemaVersion": "3.4.14",
  "updatedAt": "2023-07-19T16:14:37.955Z",
  "networkType": "ethereum",
  "devdoc": {
    "kind": "dev",
    "methods": {},
    "version": 1
  },
  "userdoc": {
    "kind": "user",
    "methods": {},
    "version": 1
  }
}